S0100000536576656E5365672E73726563F4
S11300000C942A000C9434000C9434000C943400A6
S11300100C9434000C9434000C9434000C9434008C
S11300200C9434000C9434000C9434000C9434007C
S11300300C9434000C9434000C9434000C9434006C
S11300400C9434000C9434000C9434000C9434005C
S11300500C94340011241FBECFE5D4E0DEBFCDBF25
S11300600E9436000C94B1000C9400008FEF84BB06
S113007081BBB89AC0980E948400FDCF0097E1F03C
S113008081309105D9F082309105D1F0833091050A
S1130090C9F084309105C1F085309105B9F08630FE
S11300A09105B1F087309105A9F088309105A1F050
S11300B0099799F420E111C020E40FC029E70DC08D
S11300C024E20BC020E309C029E107C022E105C0F6
S11300D022E003C028E701C020E0822F089590E0C9
S11300E002C0959587956A95E2F780FF0BC02FE9CA
S11300F086E891E0215080409040E1F700C0000084
S113010081E0089580E00895FF920F931F93CF93A9
S1130110DF93C0E0D0E000E010E0FF24F39489B363
S113012060E00E946F00882361F088B38F2588BB4C
S1130130C8010E943E0085BBCE010E943E0082BBE6
S11301402196CA30D10521F40F5F1F4FC0E0D0E0E3
S11301500A30110524F3DF91CF911F910F91FF9085
S10901600895F894FFCF9E
S9030000FC
