S015000050415353574F52445F415554482E737265630B
S11300000C942A000C9447000C9447000C9447006D
S11300100C9447000C9447000C9447000C94470040
S11300200C9447000C9447000C9447000C94470030
S11300300C9447000C9447000C9447000C94470020
S11300400C9447000C9447000C9447000C94470010
S11300500C94470011241FBECFE5D8E0DEBFCDBF0E
S113006010E0A0E6B0E0EAE8F7E002C005900D92E7
S1130070A83BB107D9F720E0A8EBB0E001C01D927E
S1130080A83BB207E1F70E942B030C94C3030C9422
S1130090000011B810B8089594EA96BF06B607FE9A
S11300A0FDCF91B1987F983071F483B984E886BF0D
S11300B006B607FEFDCF81B1887F883131F08032EA
S11300C031F083E0089580E0089581E0089582E0AE
S11300D0089594EA96BF06B607FEFDCF91B1987FC6
S11300E0903171F483B984E886BF06B607FEFDCF6C
S11300F081B1887F803431F0883431F083E0089511
S113010080E0089581E0089582E0089583B984E849
S113011086BF06B607FEFDCF81B1887F883221F005
S1130120803321F082E0089580E0089581E008950D
S113013084EC86BF06B607FEFDCF83B1089584E83C
S113014086BF06B607FEFDCF83B1089584E986BF56
S113015006B604FCFDCF0895889881B3806F81BBF7
S11301608FEF82BB0895EF92FF920F931F93CF936B
S1130170DF93C0E6D0E060E070E0DE0141E050E0F3
S113018092B3FA010C9002C0EE0FFF1F0A94E2F73B
S11301909A0112960C90129702C0220F331F0A94F0
S11301A0E2F72E2B822F892B9A0114960C90149728
S11301B002C0220F331F0A94E2F7282BCA011696B5
S11301C00C90169702C0880F991F0A94E2F7822BAD
S11301D082BB92B3888122969A0102C0220F331FF8
S11301E08A95E2F7822F8095892382BBE8E6F0E0C6
S11301F0EE24E394F12C00E010E005C00F5F1F4FE4
S11302008FEFE81AF80A80B32081329690E0022E2C
S113021002C0959587950A94E2F780FD50C0CA0103
S113022002C0880F991F2A95E2F79C0180B390E0E1
S113023082239323892BD1F361307105C9F024F40F
S11302406115710541F03BC062307105F1F0633016
S1130250710541F134C001151105F1F101301105A9
S1130260E9F102301105E1F10330110541F53AC01D
S113027001151105C9F101301105C1F10230110553
S1130280B9F103301105D9F435C001151105A1F1F7
S11302900130110599F10230110591F10330110576
S11302A071F430C00115110579F10130110571F1B6
S11302B00230110569F10330110571F52BC094E08A
S11302C0E916F1040CF49ACF6F5F7F4F6430710527
S11302D009F056CF81E426C087E324C084E322C01A
S11302E081E320C08FE31EC088E31CC085E31AC0ED
S11302F082E318C080E316C089E314C086E312C009
S113030083E310C08DE30EC08FE20CC08AE20AC002
S11303108DE208C08BE206C084E0E816F1040CF418
S11303206DCF81E4DF91CF911F910F91FF90EF90FA
S11303300895DD9A00000000DD98089517BADF9A49
S1130340DA98C79B04C00E949901C799FCCF8FEF2C
S113035087BB0895CF93C82F0E949E01C8BB8BB35F
S11303608B778BBB0E94990118BACF910895E62F21
S1130370F0E0E059FF4F80589081890F0E94AA0154
S113038008958AB3846A8ABB85EA9EE00197F1F7EF
S113039000C0000081E00E94AA0183EF91E0019770
S11303A0F1F700C0000088E30E94AA0190E19A9549
S11303B0F1F700C08EE00E94AA0180E18A95F1F76E
S11303C000C00895CF93C82F0E949E01C8BBDF9838
S11303D0DA9A0E94990118BACF910895CF93DF93C6
S11303E0EC018881882331F021960E94E2018991F1
S11303F08111FBCFDF91CF91089581E00E94AA0182
S113040086EA8A95F1F700C00895EF92FF920F9360
S11304101F93CF93DF93CDB7DEB728970FB6F89429
S1130420DEBF0FBECDBF8E010F5F1F4F88E0F80106
S113043011928A95E9F788EA0E944C0080E00E94B4
S1130440860089EA0E94690083EC99E00197F1F73C
S113045000C00000780100E010E0073011055CF4F2
S11304600E949800E7EAF1E63197F1F700C0000036
S1130470F70180830AC00E949F00E7EAF1E6319702
S1130480F1F700C00000F70180830F5F1F4FFFEFFB
S1130490EF1AFF0A0830110501F70E94A600CE01E9
S11304A001960E949D0328960FB6F894DEBF0FBEF6
S11304B0CDBFDF91CF911F910F91FF90EF900895E1
S11304C0DF92EF92FF920F931F93CF93DF93D82E77
S11304D0D92FE82EF92E00E010E00E94B300C82FB7
S11304E0813491F08AE20E94E20187EA91E6019761
S11304F0F1F700C00000F701C1937F010F5F1F4FA8
S11305000830110551F703C00830110534F38D2D5F
S11305109D2F0E949D03DF91CF911F910F91FF901A
S1130520EF90DF900895DF92EF92FF920F931F9365
S1130530CF93DF93D82ED92FE82EF92E00E010E0C8
S11305400E94B300C82F813489F00E94E20187EA37
S113055091E60197F1F700C00000F701C1937F0114
S11305600F5F1F4F0830110559F703C008301105FC
S11305703CF38D2D9D2F0E949D03DF91CF911F9100
S11305800F91FF90EF90DF9008950F931F93CF93F7
S1130590DF938C0188EA0E944C0080E00E94860070
S11305A0E801085F1F4F89910E94860087EA91E65F
S11305B00197F1F700C00000C017D107A1F70E940E
S11305C0A60083EC99E00197F1F700C00000DF91E9
S11305D0CF911F910F910895D89A0E94FD0160E078
S11305E080E00E94B70183EC99E00197F1F700C025
S11305F0000084E790E00E94EE019FE926E881E094
S1130600915020408040E1F700C000000895DC9A3A
S113061089EF90E00197F1F700C00000DC989FE7B4
S11306202AE186E0915020408040E1F700C00000BC
S11306300895DC9A86E791E00197F1F700C0000085
S1130640DC989FE72AE186E0915020408040E1F762
S113065000C000000895CF93DF93CDB7DEB728978D
S11306600FB6F894DEBF0FBECDBF8E010F5F1F4FD4
S113067088E0F80111928A95E9F78AB38B618ABB05
S1130680D898D6980E94AC000E94C1010E9499019A
S11306900E9449000E9407030E94EC02C8010E94C4
S11306A06002D898C8010E94C5020E94FD0160E062
S11306B080E00E94B70183EC99E00197F1F700C054
S11306C0000085E890E00E94EE01CE0101960E94B0
S11306D093027C010E9405028C019FE9E6E8F1E0A7
S11306E09150E040F040E1F700C000000E94FD019D
S11306F060E080E00E94B70183EC99E00197F1F794
S113070000C0000087E990E00E94EE0162E080E012
S11307100E94B701E016F10641F488EA90E00E94D5
S1130720EE01DB9A0E941903C0CF80EB90E00E9497
S1130730EE01D99A0E940703B8CFFC0188279927B4
S1130740E89421912032E9F3293010F02E30C8F3D7
S11307502B3241F02D3239F4689404C00E94BB035B
S1130760820F911D219120532A30C0F31EF49095DD
S113077081959F4F08957AE0979F902D879F802DB4
S10D0780910D11240895F894FFCFA1
S113078A040005000600070000000100020003003F
S113079A004014546E6577202070617373776F720A
S11307AA643A202000656E746572207061737377F1
S11307BA6F72643A20200061757468656E746963A7
S11307CA6174696E672E2E007375636365737300B3
S10B07DA6661696C65640000AE
S9030000FC
