:100000000C942A000C943F000C943F000C943F0089
:100010000C943F000C943F000C943F000C943F0064
:100020000C943F000C943F000C943F000C943F0054
:100030000C943F000C943F000C943F000C943F0044
:100040000C943F000C943F000C943F000C943F0034
:100050000C943F0011241FBECFE5D4E0DEBFCDBF1E
:1000600010E0A0E6B0E0E2E8F2E002C005900D92F8
:10007000A637B107D9F70E9484000C943F010C9475
:100080000000959A000000009598089514BA979A78
:100090009298AF9B04C00E944100AF99FCCF8FEFB4
:1000A00084BB0895CF93C82F0E944600C5BB82B37E
:1000B0008B7782BB0E94410015BACF910895CF93F0
:1000C000C82F0E944600C5BB9798929A0E94410093
:1000D00015BACF910895CF93DF93EC0188818823DF
:1000E00031F021960E945F0089918111FBCFDF9151
:1000F000CF910895E62FF0E0E05AFF4F80589081AD
:10010000890F0E9452000895CF93DF9300D000D052
:10011000CDB7DEB781B3846A81BB85EA9EE00197E3
:10012000F1F700C0000081E00E94520083EF91E0EF
:100130000197F1F700C0000088E30E94520090E1AF
:100140009A95F1F700C08EE00E94520080E18A95F6
:10015000F1F700C0E12CF12C5AC04AE0BE016F5FFC
:100160007F4FC8010E940A0162E08DE00E947A0080
:1001700084E690E00E946B00CE0101960E946B0025
:100180004AE0BE016F5F7F4FC7010E940A0163E032
:100190008DE00E947A0088E690E00E946B00CE011C
:1001A00001960E946B006E2D802F0E947A008CE6D3
:1001B00090E00E946B008FE493EC0197F1F700C090
:1001C00000006E2D802F0E947A0083E790E00E944D
:1001D0006B0062E08DE00E947A008EE690E00E9463
:1001E0006B0063E08DE00E947A008EE690E00E9452
:1001F0006B000F5F1F4F0431110509F0AECF9FEF69
:10020000E91AF90A84E0E816F10409F4A3CF00E042
:1002100010E0A3CFBB274A3031F4992322F4BDE28A
:10022000909581959F4F0C941601BB27FB01552794
:10023000AA27880F991FAA1FA41710F0A41B839543
:100240005051B9F7A05DAA3308F0A95DA1930097BA
:1002500079F7B111B1931192CB010C942F01DC010C
:10026000FC01672F71917723E1F7329704C07C91ED
:100270006D9370836291AE17BF07C8F30895F89429
:02028000FFCFAE
:1002820000401454583D2000593D200078002020A1
:06029200202020200000E6
:00000001FF
