:100000000C942A000C9434000C9434000C943400AA
:100010000C9434000C9434000C9434000C94340090
:100020000C9434000C9434000C9434000C94340080
:100030000C9434000C9434000C9434000C94340070
:100040000C9434000C9434000C9434000C94340060
:100050000C94340011241FBECFE5D8E0DEBFCDBF25
:100060000E94B6000C940E010C94000082B984EC3E
:1000700086BF089506B607FEFDCF81B1982F987F01
:10008000807F803641F0983A41F0903B41F08037D4
:1000900089F782E0089580E0089581E0089581E085
:1000A000089584EC86BF06B607FEFDCF81B1982F78
:1000B000987E903811F483B10895983811F483B183
:1000C0000895887F803A29F486B7806886BF8FEFCD
:1000D00008958EEF089592E09BB998E19AB990E85F
:1000E00090BD20B530B52F742068E0E18E9FC0012F
:1000F0001124822B832B80BD80B5866880BDDB01F7
:10010000CA01880F991FAA1FBB1F880F991FAA1F1A
:10011000BB1F9C01AD01220F331F441F551F60E41C
:1001200072E48FE090E00E94EC002150310930BD74
:1001300029B90895FC018481882319F0813049F0A0
:100140000895408151816281738185810E946B0095
:100150000895408151816281738185810E946B0085
:10016000579A08955D9BFECF8CB90895CF93DF9386
:1001700000D000D000D0CDB7DEB780E895E2A0E097
:10018000B0E089839A83AB83BC831D821E8280EC9E
:100190000E943600CE0101960E949A0089E70E94D3
:1001A000B20087EA91E60197F1F700C000000E94D3
:1001B0003A008111F3CF0E945100E7EAF1E631974E
:1001C000F1F700C000000E94B20087EA91E60197B3
:1001D000F1F700C00000E2CFA1E21A2EAA1BBB1B60
:1001E000FD010DC0AA1FBB1FEE1FFF1FA217B30703
:1001F000E407F50720F0A21BB30BE40BF50B661F19
:10020000771F881F991F1A9469F7609570958095DC
:1002100090959B01AC01BD01CF010895F894FFCFEB
:00000001FF
